{
  "contractName": "TaskContract",
  "abi": [
    {
      "inputs": [],
      "stateMutability": "nonpayable",
      "type": "constructor"
    },
    {
      "anonymous": false,
      "inputs": [
        {
          "indexed": false,
          "internalType": "uint256",
          "name": "id",
          "type": "uint256"
        },
        {
          "indexed": false,
          "internalType": "string",
          "name": "title",
          "type": "string"
        },
        {
          "indexed": false,
          "internalType": "string",
          "name": "description",
          "type": "string"
        },
        {
          "indexed": false,
          "internalType": "bool",
          "name": "done",
          "type": "bool"
        },
        {
          "indexed": false,
          "internalType": "uint256",
          "name": "createdAt",
          "type": "uint256"
        }
      ],
      "name": "TaskCreated",
      "type": "event"
    },
    {
      "inputs": [
        {
          "internalType": "uint256",
          "name": "",
          "type": "uint256"
        }
      ],
      "name": "task",
      "outputs": [
        {
          "internalType": "uint256",
          "name": "id",
          "type": "uint256"
        },
        {
          "internalType": "string",
          "name": "title",
          "type": "string"
        },
        {
          "internalType": "string",
          "name": "description",
          "type": "string"
        },
        {
          "internalType": "bool",
          "name": "done",
          "type": "bool"
        },
        {
          "internalType": "uint256",
          "name": "createdAt",
          "type": "uint256"
        }
      ],
      "stateMutability": "view",
      "type": "function",
      "constant": true
    },
    {
      "inputs": [],
      "name": "taskCounter",
      "outputs": [
        {
          "internalType": "uint256",
          "name": "",
          "type": "uint256"
        }
      ],
      "stateMutability": "view",
      "type": "function",
      "constant": true
    },
    {
      "inputs": [
        {
          "internalType": "string",
          "name": "_title",
          "type": "string"
        },
        {
          "internalType": "string",
          "name": "_description",
          "type": "string"
        }
      ],
      "name": "createTask",
      "outputs": [],
      "stateMutability": "nonpayable",
      "type": "function"
    },
    {
      "inputs": [
        {
          "internalType": "uint256",
          "name": "_id",
          "type": "uint256"
        }
      ],
      "name": "toggleDone",
      "outputs": [],
      "stateMutability": "nonpayable",
      "type": "function"
    }
  ],
  "bytecode": "0x6080604052600080553480156200001557600080fd5b50620000926040518060400160405280601a81526020017f4d69207072696d657220746172656120646520656a656d706c6f0000000000008152506040518060400160405280601681526020017f4d69207072696d657261206465736372697063696f6e000000000000000000008152506200009860201b60201c565b6200048d565b60004290506040518060a00160405280600054815260200184815260200183815260200160001515815260200182815250600160008054815260200190815260200160002060008201518160000155602082015181600101908051906020019062000105929190620001b4565b50604082015181600201908051906020019062000124929190620001b4565b5060608201518160030160006101000a81548160ff021916908315150217905550608082015181600401559050507f6549102bed7d1bb5ec529ee14e2ca60ffc1f47f66d4cc6ca713220613cc64c2560005484846000856040516200018e959493929190620002c7565b60405180910390a1600080815480929190620001aa90620003d0565b9190505550505050565b828054620001c2906200039a565b90600052602060002090601f016020900481019282620001e6576000855562000232565b82601f106200020157805160ff191683800117855562000232565b8280016001018555821562000232579182015b828111156200023157825182559160200191906001019062000214565b5b50905062000241919062000245565b5090565b5b808211156200026057600081600090555060010162000246565b5090565b6200026f816200034e565b82525050565b6000620002828262000332565b6200028e81856200033d565b9350620002a081856020860162000364565b620002ab816200047c565b840191505092915050565b620002c1816200035a565b82525050565b600060a082019050620002de6000830188620002b6565b8181036020830152620002f2818762000275565b9050818103604083015262000308818662000275565b905062000319606083018562000264565b620003286080830184620002b6565b9695505050505050565b600081519050919050565b600082825260208201905092915050565b60008115159050919050565b6000819050919050565b60005b838110156200038457808201518184015260208101905062000367565b8381111562000394576000848401525b50505050565b60006002820490506001821680620003b357607f821691505b60208210811415620003ca57620003c96200044d565b5b50919050565b6000620003dd826200035a565b91507fffffffffffffffffffffffffffffffffffffffffffffffffffffffffffffffff8214156200041357620004126200041e565b5b600182019050919050565b7f4e487b7100000000000000000000000000000000000000000000000000000000600052601160045260246000fd5b7f4e487b7100000000000000000000000000000000000000000000000000000000600052602260045260246000fd5b6000601f19601f8301169050919050565b610a70806200049d6000396000f3fe608060405234801561001057600080fd5b506004361061004c5760003560e01c806317751a2114610051578063292a45851461008557806358671730146100a1578063d81ef739146100bf575b600080fd5b61006b600480360381019061006691906106fb565b6100db565b60405161007c95949392919061079a565b60405180910390f35b61009f600480360381019061009a9190610683565b61022e565b005b6100a9610342565b6040516100b6919061077f565b60405180910390f35b6100d960048036038101906100d491906106fb565b610348565b005b6001602052806000526040600020600091509050806000015490806001018054610104906108c5565b80601f0160208091040260200160405190810160405280929190818152602001828054610130906108c5565b801561017d5780601f106101525761010080835404028352916020019161017d565b820191906000526020600020905b81548152906001019060200180831161016057829003601f168201915b505050505090806002018054610192906108c5565b80601f01602080910402602001604051908101604052809291908181526020018280546101be906108c5565b801561020b5780601f106101e05761010080835404028352916020019161020b565b820191906000526020600020905b8154815290600101906020018083116101ee57829003601f168201915b5050505050908060030160009054906101000a900460ff16908060040154905085565b60004290506040518060a00160405280600054815260200184815260200183815260200160001515815260200182815250600160008054815260200190815260200160002060008201518160000155602082015181600101908051906020019061029992919061055b565b5060408201518160020190805190602001906102b692919061055b565b5060608201518160030160006101000a81548160ff021916908315150217905550608082015181600401559050507f6549102bed7d1bb5ec529ee14e2ca60ffc1f47f66d4cc6ca713220613cc64c25600054848460008560405161031e95949392919061079a565b60405180910390a160008081548092919061033890610928565b9190505550505050565b60005481565b6000600160008381526020019081526020016000206040518060a001604052908160008201548152602001600182018054610382906108c5565b80601f01602080910402602001604051908101604052809291908181526020018280546103ae906108c5565b80156103fb5780601f106103d0576101008083540402835291602001916103fb565b820191906000526020600020905b8154815290600101906020018083116103de57829003601f168201915b50505050508152602001600282018054610414906108c5565b80601f0160208091040260200160405190810160405280929190818152602001828054610440906108c5565b801561048d5780601f106104625761010080835404028352916020019161048d565b820191906000526020600020905b81548152906001019060200180831161047057829003601f168201915b505050505081526020016003820160009054906101000a900460ff161515151581526020016004820154815250509050806060015115816060019015159081151581525050806001600084815260200190815260200160002060008201518160000155602082015181600101908051906020019061050c92919061055b565b50604082015181600201908051906020019061052992919061055b565b5060608201518160030160006101000a81548160ff021916908315150217905550608082015181600401559050505050565b828054610567906108c5565b90600052602060002090601f01602090048101928261058957600085556105d0565b82601f106105a257805160ff19168380011785556105d0565b828001600101855582156105d0579182015b828111156105cf5782518255916020019190600101906105b4565b5b5090506105dd91906105e1565b5090565b5b808211156105fa5760008160009055506001016105e2565b5090565b600061061161060c84610820565b6107fb565b90508281526020810184848401111561062d5761062c610a03565b5b610638848285610883565b509392505050565b600082601f830112610655576106546109fe565b5b81356106658482602086016105fe565b91505092915050565b60008135905061067d81610a23565b92915050565b6000806040838503121561069a57610699610a0d565b5b600083013567ffffffffffffffff8111156106b8576106b7610a08565b5b6106c485828601610640565b925050602083013567ffffffffffffffff8111156106e5576106e4610a08565b5b6106f185828601610640565b9150509250929050565b60006020828403121561071157610710610a0d565b5b600061071f8482850161066e565b91505092915050565b6107318161086d565b82525050565b600061074282610851565b61074c818561085c565b935061075c818560208601610892565b61076581610a12565b840191505092915050565b61077981610879565b82525050565b60006020820190506107946000830184610770565b92915050565b600060a0820190506107af6000830188610770565b81810360208301526107c18187610737565b905081810360408301526107d58186610737565b90506107e46060830185610728565b6107f16080830184610770565b9695505050505050565b6000610805610816565b905061081182826108f7565b919050565b6000604051905090565b600067ffffffffffffffff82111561083b5761083a6109cf565b5b61084482610a12565b9050602081019050919050565b600081519050919050565b600082825260208201905092915050565b60008115159050919050565b6000819050919050565b82818337600083830152505050565b60005b838110156108b0578082015181840152602081019050610895565b838111156108bf576000848401525b50505050565b600060028204905060018216806108dd57607f821691505b602082108114156108f1576108f06109a0565b5b50919050565b61090082610a12565b810181811067ffffffffffffffff8211171561091f5761091e6109cf565b5b80604052505050565b600061093382610879565b91507fffffffffffffffffffffffffffffffffffffffffffffffffffffffffffffffff82141561096657610965610971565b5b600182019050919050565b7f4e487b7100000000000000000000000000000000000000000000000000000000600052601160045260246000fd5b7f4e487b7100000000000000000000000000000000000000000000000000000000600052602260045260246000fd5b7f4e487b7100000000000000000000000000000000000000000000000000000000600052604160045260246000fd5b600080fd5b600080fd5b600080fd5b600080fd5b6000601f19601f8301169050919050565b610a2c81610879565b8114610a3757600080fd5b5056fea264697066735822122096857ed8d687bf95d158d0408cfae47b49b45d288ad788f16246e352d47a36ba64736f6c63430008060033",
  "immutableReferences": {},
  "source": "// SPDX-License-Identifier: MIT\npragma solidity ^0.8.6;\n\ncontract TaskContract {\n    uint256 public taskCounter = 0;\n\n    constructor() {\n        createTask(\"Mi primer tarea de ejemplo\", \"Mi primera descripcion\");\n    }\n\n    event TaskCreated(\n        uint256 id,\n        string title,\n        string description,\n        bool done,\n        uint256 createdAt\n    );\n\n    struct Task {\n        uint256 id;\n        string title;\n        string description;\n        bool done;\n        uint256 createdAt;\n    }\n\n    mapping(uint256 => Task) public task;\n\n    function createTask(string memory _title, string memory _description)\n        public\n    {\n        uint256 timeStamp = block.timestamp;\n        task[taskCounter] = Task(\n            taskCounter,\n            _title,\n            _description,\n            false,\n            timeStamp\n        );\n\n        emit TaskCreated(taskCounter, _title, _description, false, timeStamp);\n\n        taskCounter++;\n    }\n\n    function toggleDone(uint256 _id) public {\n        Task memory _task = task[_id];\n        _task.done = !_task.done;\n        task[_id] = _task;\n    }\n}\n",
  "sourcePath": "/Users/jesusbossa/Development/solid-contract/contracts/TaskContract.sol",
  "compiler": {
    "name": "solc",
    "version": "0.8.6+commit.11564f7e.Emscripten.clang"
  },
  "schemaVersion": "3.4.3",
  "updatedAt": "2021-10-15T00:53:40.938Z",
  "networkType": "ethereum",
  "devdoc": {
    "kind": "dev",
    "methods": {},
    "version": 1
  },
  "userdoc": {
    "kind": "user",
    "methods": {},
    "version": 1
  }
}